:020000040800F2
:1000000018070020DD020008FB3700080D33000848
:10001000F9370008471F0008B13B00080000000046
:100020000000000000000000000000005738000839
:10003000491F000800000000FD370008593800087B
:10004000F7020008F7020008F7020008F7020008AC
:10005000F7020008F7020008F7020008F70200089C
:10006000F7020008F7020008F7020008F70200088C
:10007000F7020008F7020008F7020008F70200087C
:10008000F7020008F7020008F7020008F70200086C
:10009000F7020008F7020008F7020008F70200085C
:1000A000F7020008F7020008F7020008F70200084C
:1000B000F7020008F7020008F7020008F70200083C
:1000C000F7020008F7020008F7020008F70200082C
:1000D000F7020008F7020008A53B0008F702000835
:1000E000F7020008F7020008F7020008F70200080C
:1000F000F7020008F7020008F7020008F7020008FC
:10010000F7020008F7020008F7020008F7020008EB
:10011000F7020008F7020008F7020008F7020008DB
:10012000F7020008F7020008F7020008F7020008CB
:10013000F7020008F7020008F7020008F7020008BB
:10014000F7020008F7020008F7020008F7020008AB
:10015000F7020008F7020008F7020008F70200089B
:10016000F7020008F7020008F7020008F70200088B
:10017000F7020008F7020008F7020008000000007C
:10018000F7020008F702000800F002F800F096F805
:100190000AA090E8000C82448344AAF10107DA45E2
:1001A00001D100F08BF8AFF2090EBAE80F0013F09E
:1001B000010F18BFFB1A43F001031847A43F0000CA
:1001C000C43F0000103A24BF78C878C1FAD852075B
:1001D00024BF30C830C144BF04680C6070470000C1
:1001E0000023002400250026103A28BF78C1FBD840
:1001F000520728BF30C148BF0B6070476E2900F01E
:10020000A782702900F0E983662903F01A8765291F
:1002100003F01787672903F01487612903F0138718
:1002200003681B0A28BF41F08001692900F054824D
:10023000642900F05182752900F04E826F2900F088
:100240007683782900F0B583E92900F01183E42949
:1002500000F00E83F52900F00B83EF2900F0738383
:10026000F82900F0B4830368DB0928BF41F080015E
:10027000632901F0D580732901F0DA80E32901F0C8
:10028000E580F32901F0EA80002070471FB503F0F4
:10029000D3FE9DE8030000F087F901F039F904006E
:1002A0000020002103F0B2FE401C6060002000210D
:1002B00003F096FEE0601FBD10B510BD01F0FAF826
:1002C0001146FFF7E3FF03F0BFFD01F0D7F903B4D8
:1002D000FFF7F2FF03BC01F007FA0000094880476E
:1002E00009480047FEE7FEE7FEE7FEE7FEE7FEE718
:1002F000FEE7FEE7FEE7FEE704480549054A064B30
:1003000070470000F138000889010008180100203A
:1003100018070020180300201803002070B50646B7
:1003200000F026F9056806F10B0020F00704B4423E
:100330009CBF002070BD2B466A68BAB11068A0420D
:1003400010D304F1080188423CBF5068586007D3BD
:100350005168101941601168091B016058601460F0
:10036000101D70BD13465268002AE7D12146284669
:1003700000F006F90028DED170BD70B50446051FF7
:1003800000F0F6F80068002C14BF446870BD002C23
:1003900018BFAC423CBF20466468F8D301680A1815
:1003A000AA4218BF456003D12A680546114401607E
:1003B00028684119A1421CBF6C6070BD616869600A
:1003C00021680844286070BD53EA020C00F069807F
:1003D0002DE9F04B4FF00006002B1FBFB3FA83F559
:1003E00003FA05F424FA05F65E4012BF1643B2FA8A
:1003F00082F502FA05F4C5F120051EBF22FA05FCBC
:1004000044EA0C04203556EA044C4FEA144418BF61
:10041000641C4FF000084FF00009904271EB030C90
:1004200039D3002919BFB1FA81F701FA07F6B0FAFA
:1004300080F700FA07F6C7F120071EBF20FA07FC75
:1004400046EA0C062037B6FBF4FCA7EB0507103F85
:1004500007F01F0BCBF120060CFA0BFB2CFA06F66B
:1004600044BFB3460026202FA4BF5E464FF0000BCA
:100470005BEA060C08BF4FF0010B19EB0B09ABFB55
:10048000027C48EB0608C01B06FB02CC0BFB03CC2E
:1004900071EB0C01C1E70B46024641464846BDE8F8
:1004A000F08B13B54FF000004FF00001AFF3008068
:1004B000BDE81C40704700001CB50C46064B7B4451
:1004C00069460090204600F05CF904460020694629
:1004D00000F06AF920461CBDE702000010B5431C7D
:1004E00002E010F8011B71B18107FAD14FF001321F
:1004F00002C88C1A8C4314EAC211F9D0C01A0A0639
:1005000003D0C01E10BDC01A10BD0A0401D0801E49
:1005100010BD0902FCD0401E10BD4FF0000200B516
:10052000134694469646203922BFA0E80C50A0E816
:100530000C50B1F12001BFF4F7AF090728BFA0E8C4
:100540000C5048BF0CC05DF804EB890028BF40F890
:10055000042B08BF704748BF20F8022B11F0804FD2
:1005600018BF00F8012B70477047704770470000B4
:1005700000487047C00000207047704770477047C0
:1005800038B504460A4600206946AFF300800028CB
:1005900008BF38BD02460099204600F0F1FA01205C
:1005A00038BD012000F07EBFF8B5AFF300800546EE
:1005B00000200C46102000BF0646A819A0420DD905
:1005C000324669460020AFF30080070008BF00F004
:1005D00069FF0098A04218BF0546C419FFF7C8FF7D
:1005E00005600746F01D20F007004619284600F078
:1005F0000AF8B44208BFF8BDA21B31463868BDE80E
:10060000F84000F0BDBA00210160C0E90110704758
:100610001020704770B5044685690068C10601D591
:10062000302600E02026C00707D070BDD4E90121A4
:1006300030469047206A401C20626D1EF6D570BD82
:1006400070B5044685690078C00707D170BDD4E94C
:10065000012120209047206A401C20626D1EF6D5A3
:1006600070BD09684A0501D540B27047C905FCD57F
:1006700000B2704709684A0501D5C0B27047C90584
:10068000FCD580B2704770B50C460546012A05D0EE
:100690002878800600D5EA69002302E0012305E0FE
:1006A0005B1C934202D2E05C0028F9D1A869E618ED
:1006B000C01AA861286A184428622846FFF7AAFFD2
:1006C00004E0D5E9012114F8010B9047B442F8D3B6
:1006D0002846FFF7B5FF70BD2DE9F041064600241E
:1006E00010687529314616A510D0FFF7BAFF00280B
:1006F00002DA404213A507E031688A0701D512A546
:1007000002E0490704D511A5012401E0FFF7B2FF7B
:1007100000210A2206F1240709E0B0FBF2FCB0FB3D
:10072000F2F302FB1C00303078541846491C0028B4
:10073000F3D123462A463046BDE8F04100F07FBAA7
:10074000000000002D0000002B0000002000000031
:1007500011680268006A530501D508700AE0D305E4
:1007600001D5088006E0130603D5C217C1E90002CF
:1007700000E008600120704701694A1C02610878A6
:10078000704700B58FB0CDE90131002105910549D1
:100790007944CDE903101146684600F029F90FB0FD
:1007A00000BD0000E5FFFFFF0A6802F8010B0A60C8
:1007B000704700002DE9FF5F15468A460446DFF8C2
:1007C000AC80F8440027D8E900103E46CDE900107F
:1007D00010E03AF816106A4602A800F043FE411CE9
:1007E00007D02178890603D5E269391891420DD8DE
:1007F0000744761C2078800602D5E069B84205DD02
:10080000AE42E6DB3AF816000028E2D1A069C01B30
:10081000A0612046FFF7FEFED8E90010CDE90010E8
:10082000002017E03AF818106A4602A800F01AFEF5
:10083000B0F1FF3F81460BD000250DF1080B05E01C
:10084000D4E901211BF8050090476D1C4D45F7D3F5
:1008500008F10100B0428046E4DB206A384420629F
:100860002046FFF7EDFEBDE8FF9F00009E38000028
:100870002DE9F0418046D21D22F007020025D2E981
:100880000002F52915A614D0011E72F1000106DA46
:100890000023D0EB030063EB020211A608E0D8F8B6
:1008A00000108B0701D50FA602E0490701D50EA65F
:1008B00001251146002408F1240704E000F07AF92C
:1008C00030323A55641C50EA0102F7D12B463246C9
:1008D00021464046BDE8F04100F0B1B900000000FB
:1008E0002D0000002B0000002000000030B400218B
:1008F00000F1240408E002F00705D208303542EA8E
:100900004372DB086554491C52EA0305F3D10468BD
:10091000002310A2250707D5A40600D421B1C4697D
:1009200001230DA2641EC46130BC00F088B910B56B
:10093000044621461068FFF79DFE02462046BDE8AA
:1009400010400023D2E7D21D22F00701D1E9002395
:10095000CCE700000000000030000000F0B40D46BD
:100960000188090502D5214C7C4402E01F4C7C44DF
:100970000E34002100F1240608E002F00F071209EE
:10098000E75D42EA03721B097754491C52EA0307E8
:10099000F3D102780023120704D5702D06D009B1D7
:1009A000022311342246F0BC00F049B9012310346F
:1009B000F8E770B504460D4621461068FFF75AFE69
:1009C000024629462046BDE870400023C6E7D21DF6
:1009D00022F00703D3E90023C0E70368126843F05D
:1009E000200303600823C3610023B7E7003700003A
:1009F0002DE9F05F894604464FF0000ADFF874B134
:100A0000FB44C0F820A02046E1688847002874D045
:100A1000252806D0D4E901219047206A401C206295
:100A2000F1E700265F462046E16888472028054612
:100A300007DB312D05D2781910F8200C08B10643D8
:100A4000F1E7B00701D526F00406C4F81CA0002782
:100A5000C4F818A02A2D09D0284603F0EEF938B3BF
:100A600004EB8708303DC8F8185019E059F8041B0A
:100A7000204604EB87029161E1688847012F054613
:100A800018D1E069002820DA26F020061DE0D8F809
:100A9000180000EB800005EB40003038C8F8180063
:100AA0002046E1688847054603F0C7F90028EED1E3
:100AB000012F0AD02E2D08D12046E16888477F1CDF
:100AC0000546022F46F02006C4DBA069002803DAA1
:100AD000404246F00106A061F00701D026F0100662
:100AE0006C2D0BD0682D09D04C2D39D06A2D35D006
:100AF000742D35D07A2D33D016E038E0E1682F46DA
:100B000020468847B842054609D16C2F26D04FF4BD
:100B10008060E168064320468847054604E06C2F64
:100B20001AD04FF4807006430DB3A5F14100192887
:100B300002D8203546F400664A46294620462660FB
:100B40004E46FFF75BFB80B101280BD0F61D26F067
:100B5000070000F1080956E74020E4E78020D8E7C5
:100B60000020D6E706F104094DE7284652E7206A3F
:100B7000BDE8F09F9036000000487047B8000020A4
:100B8000034640688C46002818BF88423CBF034695
:100B90004068F8D318681844884207D00CF1030065
:100BA00020F00700001D411A521A0146081D0A6074
:100BB000FFF7E3BB30B5B0F10A024FEA900E71F1D6
:100BC00000034EEA817EB0EB0E0061EB91014FEA2B
:100BD000101E4EEA017E10EB0E0041EB11114FEAA0
:100BE000102E4EEA016E10EB0E0041EB11214FEA80
:100BF000104E4EEA014E10EB0E0041EB1141401831
:100C000041F100014FEAD00040EA41704FEAD101C2
:100C100010EB80054FEA810444EA907444EB010430
:100C20006D1944EB0404521BA3414FF0000348BF6D
:100C30000A3200D530BD401C41F1000130BD2DE924
:100C4000F0470D4699469246044600F12408016893
:100C5000880604D5E06921F01001216000E0012040
:100C6000A84201DD471B00E00027A1697A1902EBC9
:100C70000900081AA0612078C00602D42046FFF7B8
:100C8000C9FC002608E0D4E901211AF806009047C3
:100C9000206A401C761C20624E45F4DB2078C0069A
:100CA0000AD52046FFF7B6FC06E0D4E90121302042
:100CB0009047206A401C2062381EA7F10107F4DC2F
:100CC00007E0D4E9012118F805009047206A401C8C
:100CD0002062281EA5F10105F3DC2046FFF7B0FCD9
:100CE0002078000602D50220BDE8F0870120FBE74E
:100CF00070472DE9FF4F0C461E464FF0FF378BB073
:100D0000D2E90001DDF860800A908A46C1F30A55F5
:100D100005B93D46002108464FF00000BAF1000F2A
:100D200000F4400005DA00EB80004FF4400101EAD6
:100D300050004FEA9059B9F1010F00DDB9460A9809
:100D400050EA4A000ED044F61050A5F2FF35454354
:100D50002F14B8F1000F1ED07542291E1EDDC9F1F7
:100D600000021CE0B8F1010F4FF0000001D030216B
:100D700003E0F24305E02154401CB042FBDB304667
:100D80000022002121540B99C1F80880C1E90020FC
:100D90000FB0BDE8F08FBD1B6D1CDEE74A4600DAE0
:100DA000694206A800F0F8FB06AB93E8070003AB26
:100DB00083E8070050460A9900F0FDFC8DE8070023
:100DC000A0F500501F3800900398002D0ADD42F274
:100DD0001F014A460844002303A90390684600F017
:100DE00066FF09E0A0F500504A461F38002303A91A
:100DF0000390684600F070FF8DE807000004000CC7
:100E000003D04FF0FF30410800E01046B8F1000F6A
:100E100003D00022009215461EE0751E05D4FFF790
:100E2000C9FE303262556D1EF9D5B3460122084322
:100E300002D000227F1C04E02078302801D100225B
:100E40007F1E002A099784D01DE0112D07DAFFF7D5
:100E5000B1FE303262556D1C50EA0102F5D10843F3
:100E600002D00098C8B10EE00021681E05E0235CA6
:100E7000625C63542254401E491C8142F7DBAB463E
:100E8000A81B401E0990002004F80B000B98099A3B
:100E9000C0F80880C0E9002B7AE711264FF000085F
:100EA00057E72DE9F04F88460446D21D22F007018E
:100EB00091B0D1E90001CDE90A0102F096FF0246A6
:100EC0000B98C00F01D02D2007E02068810701D5C5
:100ED0002B2002E0202101EAC000032A099001D062
:100EE000072A05DB03464146204600F015FB0BE1CF
:100EF0002078800601D5E06900E00620B8F1650F92
:100F0000814606D0B8F1660F18D0B8F1670F70D1DE
:100F100031E00020B9F1110F009001DB112301E055
:100F200009F101030AAA01A90CA8FFF7E2FEDDE915
:100F30000C70002609F10105834647E001204B466D
:100F400000904FF000470AAA01A90CA8FFF7D1FEB4
:100F5000DDE90DB00C995D46002610B909F10100DC
:100F60000D18B9EB050003D4C0F1FF3609F10105F6
:100F7000A5EB09002BE0B9F1010F01DA4FF00109EF
:100F80000020B9F1110F0090484601DD112300E067
:100F900003460AAA01A90CA8FFF7ABFEDDE90C7015
:100FA0004D4600268346207800070AD4AB4500DA78
:100FB0005D4601A8012D04DD411911F8011C3029FD
:100FC00007D04F4502DA17F1040F04DA01208246F8
:100FD0000FE06D1EEEE7002F02DCED1B3E4403E048
:100FE000781CA84200DD7D1CB81B00F1010A4FF0FF
:100FF00000472078000703D4AA4501DB4FF0FF3AF1
:101000000021B7F1004F0DF143088DF8431024D0B3
:1010100002202B23002F01DA7F422D230A21021EFA
:10102000A0F1010000DC5FB197FBF1FC97FBF1F24E
:1010300001FB1C7C17460CF1300C08F801CDEEE7E3
:10104000A8F1010003702188090501D5452100E0C0
:101050006521A0F1010800F8011C09980FA9A1EB76
:101060000807FF1D00B10120411901EBEA70A169D9
:101070003844081A401EA0612078C00602D42046D9
:10108000FFF7C8FA099828B1D4E901219047206AEE
:10109000401C20622078C00622D52046FFF7BAFA0D
:1010A0001EE0002E04DBB34502DD01A8805D00E0F8
:1010B0003020D4E901219047206A401C2062761C30
:1010C000AAF101005FEA000A0AD100F021FAC06823
:1010D0000168405CD4E901219047206A401C2062ED
:1010E000281EA5F10105DCDC07E0D4E9012118F890
:1010F000010B9047206A401C2062381EA7F10107AF
:10110000F3DC2046FFF79CFA032011B041E6000013
:101110002DE9F04F04460D46D21D22F0070089B09C
:10112000D0E900974846394602F05FFE0246F80FC4
:1011300001D02D2307E02068810701D52B2302E091
:10114000202101EAC0038DF820300BB1012000E01E
:101150000020032A824601D0072A04DB29462046C4
:1011600000F0DAF93FE12078800601D40D2500E097
:10117000E569C7F30A560D2D49DA00214FEA175BDE
:1011800008464FF00000002F00F4400007DA00EBA3
:1011900080004FF4400100EBD07001EA600081153F
:1011A000012901DD4FF0FF3100224FEA850CBCF12F
:1011B000180F06D31346ACF118004FF08052C2400E
:1011C00003E04FF4801323FA0CF30CF10C0CBCF188
:1011D000200F04D3ACF1200C09FA0CF001E007FA5F
:1011E0000CF000294FF0004801DD18B90FE00ED1D6
:1011F00040450CD319EB02095F4121B9404502D1AA
:101200009F4329EA0209BBEB175F00D0761C2088B8
:10121000000502D57B48784402E07A4878441938C2
:1012200008AA302302F80A30037C0AF10101002EDB
:101230000AF1020A53546A4602DC4FF0300101E021
:101240004FF031014FF001088DF8001002D0A6F2E6
:10125000FF3603E059EA470100D06B4E002D02DC57
:101260002178090704D54FF002082E218DF80110CE
:10127000C44600210BE0C7F303433F01C35C491C94
:101280006D1E02F80830052908F1010801DA002D69
:10129000F1DC00210CE000EB1973491C1B786D1E7A
:1012A000082902F808304FEA091908F1010801DAA3
:1012B000002DF0DC21688B0602D516E0A8F10108AC
:1012C000E04505DD02EB080313F8013C302BF5D0B7
:1012D000B8F1000F09DD02EB080313F8013C2E2BD7
:1012E00003D1090701D4A8F10108002D05DD3E2135
:1012F00002F808106D1E08F10108407C002E02F86B
:10130000080008F1010804DA2D20764202F80800EE
:1013100002E02B2002F808000A214FF47A7086427E
:1013200008F101080BDB96FBF0F3303302F80830CC
:1013300096FBF0F308F1010800FB136601E0642E50
:101340000CDB642096FBF0F3303302F8083096FB98
:10135000F0F308F1010800FB136601E00A2E06DB3A
:1013600096FBF1F0303002F8080008F1010896FB16
:10137000F1F001FB1060303002F80800A16908F1BB
:10138000010808EB050202EB0A00081AA0612078A8
:10139000C00602D42046FFF73DF9216A08AE01EBF2
:1013A0000A00206204E0D4E9012116F8010B9047FD
:1013B000BAF1010AF7D22078C00602D52046FFF71D
:1013C00029F96E4609E016F8010B3E280FD0D4E942
:1013D00001219047206A401C2062B8F10108F2D236
:1013E0002046FFF72DF909B00320BDE8F08F206AF1
:1013F0002844206203E0D4E90121302090476D1E8B
:10140000EBD3F8E79E2E000002FCFFFF10B5436906
:1014100013B1AFF3008001E0FFF735F9012010BDF3
:10142000127800F124010A7000224A700122EDE7CF
:1014300011684FF0FF32E9E710B5436913B1AFF31C
:10144000008001E0FFF7B6F9012010BD128800F11D
:10145000240182840022C2840122EDE711684FF04A
:10146000FF32E9E770B516460C46054600F048F82D
:10147000036893F80101012806D0FF2C0FD8185DEE
:1014800068B101202C7070BDD3F8070132462146A7
:1014900003F2071303442846BDE8704018474FF095
:1014A000FF3070BD10B500F0F7F8BDE8104000F057
:1014B000EEB870477546FFF75FFBAE46050069461C
:1014C000534620F00700854618B020B5FEF714FFFC
:1014D000BDE820404FF000064FF000074FF0000835
:1014E0004FF0000B21F00701AC46ACE8C009ACE8B6
:1014F000C009ACE8C009ACE8C0098D4670470000DF
:1015000010B500F005F8001D10BD00BF012B000054
:1015100000487047D80000202DE9F0411F460446DE
:1015200003260168072A01F4006004DB08B116A550
:1015300005E016A503E008B115A500E015A521F00A
:1015400010002060A069C01EA0610FB1401EA06104
:101550002046FFF75FF84FB1D4E9012138469047A4
:10156000206A401C2062C01C206206E0206AFAE764
:10157000D4E9012115F8010B9047761EF8D22046D8
:10158000FFF75EF8BDE8F0814E414E006E616E00DF
:10159000494E4600696E66002DE9F04781461646C1
:1015A0008AB0354878440DC88DE80D00324878443B
:1015B000801C03AC0DC884E80D0041F69B30084444
:1015C000372190FBF1F290FBF1F5A5F1800501FBCD
:1015D00012041B3C02D56442012000E00020DFF829
:1015E00098A080460027FA44AAF1BE0A0EE0E00760
:1015F0000AD03246684607EB470101230AEB810116
:1016000000F06AFB8DE8070064107F1C002CEED10F
:10161000194F7F44AE3F19E0E80715D007EB0410DF
:101620000DF1180A90E80E008AE80E00C068F0423A
:1016300001D1981908903246012306A903A800F0A9
:101640004BFB03AB83E807006D10641C002DE3D156
:101650004FF0010332466946B8F1000F03A802D0EB
:1016600000F025FB01E000F037FBC9E90001C9F8F3
:1016700008200AB0BDE8F087A02B000010B5044692
:10168000AFF300802046BDE81040FEF720BE0028E2
:1016900001D000F029B8704710B5012805D000210D
:1016A00003A000F027F8012010BD09A1F8E7000011
:1016B00053494752544D454D3A204F7574206F663B
:1016C0002068656170206D656D6F727900000000A3
:1016D0003A2048656170206D656D6F727920636F87
:1016E000727275707465640001491820ABBEFEE724
:1016F0002600020070B505460C460A2000E06D1C6D
:1017000000F052F835B128780028F8D102E0641CC6
:1017100000F04AF814B120780028F8D1BDE87040F4
:101720000A2000F041B800004FF0013C50F8042BB3
:1017300051F8043B9A4221D1A2EB0C03934313EAE4
:10174000CC1317D150F8042B51F8043B9A4215D111
:10175000A2EB0C03934313EACC130BD150F8042BE8
:1017600051F8043B9A4209D1A2EB0C03934313EACC
:10177000CC13DBD04FF00000704700BFD01A01BA85
:10178000B1FA81F101F0180122FA01F0CB40C1F168
:101790002001DBB2C0B2C01A2CFA01F3D11A914376
:1017A00011EAC311E6D1704708B569468DF800000B
:1017B0000320ABBE08BD5FEA400C08BF91F0000FEC
:1017C0004FEA8C234FEAC12243EA51514FEA1C50A1
:1017D00018BF00F5F0404FEA300018BF41F000415B
:1017E0005FEA6C5C00F02980BCF1FF3F08BF40F06D
:1017F00080407047130C06BF12044FF0100C4FF0DE
:10180000000C130E04BF12020CF1080C130F04BFDE
:1018100012010CF1040C930F04BF92000CF1020CA6
:10182000D30F04BF52000CF1010C11464FF000021F
:10183000A0F11F00A0EB0C00704711F0004F08BF93
:10184000704731F000413FF4D5AF0B0C06BF0904DF
:101850004FF0100C4FF0000C0B0E04BF09020CF1FE
:10186000080C0B0F04BF09010CF1040C8B0F04BF13
:1018700089000CF1020CCB0F04BF49000CF1010CE4
:10188000CCF12003A0EB0C0022FA03F302FA0CF2D5
:1018900041EA030100F10100704720F07F4C80EA2B
:1018A000030023F07F47ACEB070303F57C5300F004
:1018B000004003F1FF032DE980494FEA154B09B4BD
:1018C0004FEA144325EA0B4E24EA03480FF204269C
:1018D00006EB132749083E785FEA320203FB0667EE
:1018E000C7F5000707FB06F64FEA54374FEAD6461E
:1018F00006F1020607FB066CCCF1005C4FEA1C47C0
:101900002CEA074C07FB06F40CFB06F504EB154626
:101910004FEA961634BF00204FF000404FEAD1370F
:1019200006FB07FC4FEA1C4C0CFB0BF7D21B03FB1E
:101930000CF761EB07010CFB0EF7B0EB074072EB05
:1019400017420CFB08F734BFA2EB0742B2EB074289
:1019500061EB17414FEA0C444FEA910706FB07FC85
:101960004FEA1C4C0CFB0BF7B0EBC74072EB573245
:1019700003FB0CF734BFA2EBC742B2EBC74261EBEB
:1019800057310CFB0EF7B0EBC70072EB57720CFB34
:1019900008F734BFA2EBC702B2EBC70261EB577185
:1019A000039F4FEA816141EA921104EBCC044FEAB4
:1019B000D1374FEA826206FB07FC42EA90124FEAF7
:1019C00080604FEA1C4C0CFB0BF7D21B03FB0CF79F
:1019D00061EB07010CFB0EF7B0EB074072EB17420F
:1019E0000CFB08F734BFA2EB0742B2EB074261EBF6
:1019F00017414FEA8C554FEA910704EB9C2406FBF4
:101A000007FC4FEA1C4C0CFB0BF7B0EBC74072EB2A
:101A1000573203FB0CF734BFA2EBC742B2EBC7420D
:101A200061EB57310CFB0EF7B0EBC70072EB57724E
:101A30000CFB08F734BFA2EBC702B2EBC70261EBA5
:101A4000577115EB4C254FEA816141EA92114FEA3B
:101A500082624FEAD13742EA901206FB07FC44F15A
:101A600000044FEA80604FEA1C4C0CFB0BF7D21BC2
:101A700003FB0CF761EB07010CFB0EF7B0EB074023
:101A800072EB17420CFB08F734BFA2EB0742B2EB34
:101A9000074261EB174115EB1C154FEA813141EA12
:101AA00092414FEA823242EA90424FEA80304FEA56
:101AB0000C7644F1000448EA03434EEA0B484FF029
:101AC000000EB2EB080C71EB030724BF62463946E7
:101AD0004EEB0E0E4FF0000B0018524149414BEBFC
:101AE0000B0BB2EB080C71EB03077BF1000B24BF6F
:101AF000624639464EEB0E0E4FF0000B0018524175
:101B000049414BEB0B0BB2EB080C71EB03077BF17C
:101B1000000B24BF624639464EEB0E0E51EA020717
:101B200018BF46F0010616EB0E7655F1000254F18F
:101B3000000103D5BDE88901BDE80088BDE8890141
:101B4000BDE80048B619524141EB0101A3F1010380
:101B5000704780807F7E7D7C7B7A7978777676751A
:101B60007473727171706F6E6E6D6C6C6B6A6A6992
:101B70006868676666656464636362616160605F2C
:101B80005F5E5E5D5D5C5C5B5B5A5A5959585857A5
:101B9000575656555555545453535252525151500D
:101BA00050504F4F4F4E4E4D4D4D4C4C4C4B4B4B60
:101BB0004A4A4A49494948484847474747464646A6
:101BC00045454544444444434343434242424241E1
:101BD0004141002B9C4630D477002BD01CB54FEAF6
:101BE000370703B44FF010004FF01001BAF1000FA7
:101BF00006D0BCF1000FDCBF40F0080040F0080147
:101C00004FF000000FBCBDE810400BF1010BBBF121
:101C1000010F08BF5FEA170722BF12F1010211F19D
:101C200001014FF0004143F1000300F0004043EA9E
:101C300000007047F9D35708D0E746EA064613F18B
:101C4000400F4FEA16461FDD13F1200FDFBF16438A
:101C50000A46002120335B42BED0C3F1200746EA8A
:101C6000064602FA07F74FEA164646EA0706C3F1A8
:101C7000200722FA03F201FA07F721FA03F14FF0E5
:101C8000000342EA0702A7E746EA020646EA0646DA
:101C90004FEA164646EA0106BCBF46EA0646360C3F
:101CA0004FF000034FF000024FF0000194E72DE9E0
:101CB000804C9A46934670B491E8380007C831EAE0
:101CC000400C48BF34EA430C03D5FFF7E6FDFFF7AD
:101CD00080FFF0BCBDE8008C2DE9804C9A4693460D
:101CE00070B491E8380007C810F0804F08BF13F0B7
:101CF000804F03D100F005F8FFF76BFFF0BCBDE8A3
:101D0000008C20F07F4780EA030023F07F4C07EB34
:101D10000C03A3F57C5300F00040A3F1FE0392F006
:101D2000000F00F0B38095F0000F00F077802DE9F0
:101D300001494FEA11404FEA144621EA004800FBEE
:101D400006FC24EA064708FB06F607FB08F800FB3A
:101D500007F718EB06484CEB164C4FEA124B18EB02
:101D600007484FEA15464CEB174022EA0B4E0BFB97
:101D700006FC25EA06470EFB06F607FB0EFE0BFBEC
:101D800007F71EEB064E4CEB164C4FF000061EEB11
:101D9000074E4CEB174B18EB0B0840F1000018EB0B
:101DA0000E0B58EB000840F100008F1A4FF00001B5
:101DB0003CBFC943661B14BFB5EB040C00213CBFFC
:101DC000C943F61B4FEA17444EEA8E0E27EA044534
:101DD0004FEA1C4704FB07622CEA074C05FB07F798
:101DE0000CFB05F604FB0CFC16EB074642EB174216
:101DF00016EB0C4642EB1C421BEB060658EB0202AC
:101E0000414146EA9E0601D5BDE80189B619524115
:101E100041EB0101A3F10103BDE801894FEA14453B
:101E20004FEA114724EA054621EA074C05FB07F46F
:101E300006FB07F70CFB06F105FB0CFC11EB074159
:101E400044EB17444FEA124711EB0C4144EB1C449E
:101E500022EA074C05FB07F206FB07F70CFB06F628
:101E600005FB0CFC16EB074642EB174216EB0C4643
:101E700042EB1C456A1854F1000148BF7047B6197F
:101E8000524141EB0101A3F10103704795F0000FAE
:101E900037D04FEA11424FEA144721EA024624EABA
:101EA000074C02FB07F106FB07F70CFB06F402FBED
:101EB0000CFC14EB074441EB17414FEA154714EBB8
:101EC0000C4441EB1C4125EA074C02FB07F506FBDD
:101ED00007F70CFB06F602FB0CFC16EB074645EB7E
:101EE000174516EB0C4645EB1C42121951F1000147
:101EF00048BF7047B619524141EB0101A3F10103FC
:101F000070474FEA14454FEA114724EA054621EA93
:101F1000074C05FB07F106FB07F70CFB06F24FF039
:101F2000000605FB0CFC12EB074241EB174112EBDC
:101F30000C4251EB1C4148BF7047921841EB010124
:101F4000A3F101037047FEE770472DE9F041044615
:101F5000876D00F065F9064694F8350000250228E3
:101F600006D08020606584F834500120BDE8F081FF
:101F70002068016821F0160101602068416921F0A4
:101F800080014161206C08B9A06C20B12068016813
:101F900021F0080101602068016821F00101016061
:101FA0000CE000F03DF9801B052807D92020606572
:101FB000032084F8350084F83450D7E7206800689F
:101FC000C007EED194F85C103F208840B860012033
:101FD00084F8350084F834500020C7E790F83510B5
:101FE000022903D08021416501207047052180F836
:101FF00035100068016821F0010101600020704780
:1020000070B5044600F00CF90546601C02D0044887
:102010000078044400F004F9401BA042FAD370BDDC
:10202000100000202DE9F84FDFF8BCA100220125A7
:1020300003264FF00F090AF1040BAAF1040E00BFAA
:102040000B6805FA02F42340A34270D10F7907F020
:102050000307012F01D0022F16D187684FEA4208EB
:1020600006FA08FC27EA0C07D1F80CC00CFA08FCA9
:102070004CEA070CC0F808C04768A7430C79C4F3C2
:10208000001494403C4344600C79E443A4070AD014
:10209000C4684FEA420C06FA0CF7BC438F6807FA93
:1020A0000CF72743C7600C7904F00304022C12D10B
:1020B000D40800EB840CDCF820405707FF0E09FA27
:1020C00007F824EA0804D1F8108008FA07F848EA6B
:1020D0000408CCF8208004684FEA420C06FA0CF79A
:1020E000BC430F7907F0030707FA0CF72743076093
:1020F0004C6814F4403F70D03C4C276847F480474C
:102100002760246822F0030704F480440094384CCC
:1021100007EB040CDCF8084897074FEA177809FA30
:1021200008F7BC43334FB84202D1002724E054E003
:10213000314FB84201D101271EE0304FB84201D1E2
:10214000022719E02E4FB84201D1032714E02D4F8A
:10215000B84201D104270FE02B4FB84201D1052727
:102160000AE02A4FB84201D1062705E0284FB842BD
:1021700001D1072700E0082707FA08F72743CCF822
:102180000878DAF800405746D1F804C09C435FEA6B
:10219000CC2C00D51C433C60DBF800405F46D1F8F6
:1021A00004C09C435FEA8C2C00D51C433C60DEF8E5
:1021B00000407746D1F804C09C435FEA8C3C00D5D0
:1021C0001C433C60084F083F3C68D1F804C09C4366
:1021D0005FEACC3C00D51C433C60521C102AFFF443
:1021E0002FAFBDE8F88F0000083C014044380240A2
:1021F000003001400000024000040240000802409C
:10220000000C02400010024000140240001802407E
:10221000001C02400AB1816170470904FBE700001D
:1022200001488068704700001000002070B504006D
:1022300025D094F83D00002520B984F83C50204674
:1022400000F0E2FA242084F83D002068016821F0C3
:10225000010101602068016841F4004101602068CB
:10226000016821F40041016000F036FC4D4A6168CC
:10227000914201D84C4900E04C49884201D20120EA
:1022800070BD4B492368B0FBF1F15E6826F03F0654
:102290000E435E606368934206D94FF496735943C8
:1022A0004FF47A73B1FBF3F12368491C1E6A26F0E0
:1022B0003F06314319626168914210D84900401EBF
:1022C000B0FBF1F2521CC2F30B02042A01D204202B
:1022D00022E0B0FBF1F0401CC0F30B001CE0A26850
:1022E000F2B301EBC10303EB0116431EB3FBF6F39C
:1022F0005B1C43F480431B0549D092B301EBC10240
:1023000002EB0111401EB0FBF1F0401CC0F30B00CA
:1023100040F4804040F400402168CA694CF6FF73E5
:102320009A431043C861D4E907100143206802684A
:1023300022F0C00211430160D4E903010143206887
:10234000826848F2FF339A4311438160D4E9050162
:1023500008432168CA6822F0FF021043C86001E008
:102360000EE016E02068016841F00101016025647B
:10237000202084F83D00256384F83E50002070BD85
:1023800001EB4106431EB3FBF6F35B1CB3E70120F0
:10239000C2E701EB4101401EB0FBF1F0401CC0F36D
:1023A0000B00B7E7A086010080841E0000093D00F5
:1023B00040420F002DE9F84F1F4690468A460446DA
:1023C000DDF82890FFF72CFF054694F83D00202803
:1023D0007FD11923012240492046009501F0F4F8ED
:1023E000002876D194F83C00012872D0012084F8AE
:1023F0003C0020680168C90703D1016841F0010170
:1024000001602068016821F400610160212084F8E6
:102410003D00102084F83E0000262664C4F8248085
:102420006785608D20852D48E0622B464A465146DF
:10243000204600F083FF90B92068416980690090D0
:1024400036E02A464946204601F070F950B1206C2A
:10245000042804D12068016841F400710160012062
:10246000BDE8F88F606A216800780861606A401CE6
:102470006062618D491E6185218D491E89B2218569
:1024800022685369DB435B070BD451B100781061BC
:10249000606A401C6062608D401E6085208D401E19
:1024A00020852A464946204601F068F80028CED10A
:1024B000208D0028C5D154F83D0B016841F400710E
:1024C0000160202004F81E09E67766770020C7E740
:1024D000FFE70220C4E70000020010000000FFFF39
:1024E0002DE9FF4F83B09A46DDE9119793460446E4
:1024F000DDF84080FFF794FE054694F83D00202863
:1025000070D11923012271492046009501F05CF831
:102510000028F5D194F83C00012863D0012084F80C
:102520003C0020680168C90703D1016841F001013E
:1025300001602068016821F400610160222084F8B4
:102540003D00402084F83E0000262664C4F8248024
:10255000A4F82A90608D20855D48E062CDE9007581
:1025600053465A462046049900F036FF00287CD195
:10257000208DD0B1012821D00228206824D04169C3
:1025800080690090208D032869D801282BD05149FB
:1025900002283B464FF00002009559D0884620465D
:1025A00001F012F8002860D13CE02068416981699F
:1025B0000091016841F40071016077E020680168D2
:1025C00021F480610160F0E7016821F4806101601D
:1025D0002068016841F400610160206841698069F8
:1025E000009063E06FE02A463946204601F06BF820
:1025F00098BB20680069616A08704EE02068016835
:1026000041F40071016020680069616A0870606AC5
:10261000401C6062218D491E2185618D491E6185A6
:10262000216838E02068016821F480610160206839
:102630000069616A0870606A401C6062208D401EFB
:102640002085608D401E60853B46002241460095F6
:10265000204600F0B9FF00B9D0E706E0FFE72A46C0
:102660003946204601F02FF818B1012007B0BDE827
:10267000F08F20680069616A0870606A401C6062BF
:10268000218D491E2185618D491E618521684A6918
:10269000D24352070AD409690170606A401C606223
:1026A000208D401E2085608D401E6085208D002875
:1026B0007FF468AF202084F83D0084F83E6084F801
:1026C0003C600020D2E70220D0E7000002001000AA
:1026D0000000FFFF040001002DE9FF4F83B09A4680
:1026E000DDE9119793460446DDF84080FFF798FD39
:1026F000054694F83D0020287FD119230122404946
:102700002046009500F060FF002876D194F83C0048
:10271000012872D0012084F83C0020680168C907B4
:1027200003D1016841F0010101602068016821F4D2
:1027300000610160212084F83D00402084F83E00C3
:1027400000262664C4F82480A4F82A90608D208591
:102750002C48E062CDE9007553465A46204604995C
:1027600000F0B8FE70B930E02A463946204600F045
:10277000DDFF58B1206C042804D12068016841F4C1
:1027800000710160012007B0BDE8F08F606A216828
:1027900000780861606A401C6062218D491E89B220
:1027A0002185628D521E628522685369DB435B0777
:1027B0000BD469B100781061606A401C6062208DA2
:1027C000401E2085608D401E6085208D0028CBD165
:1027D0002A463946204600F0D1FE0028CAD154F8D6
:1027E0003D0B016841F400710160202004F81E09CE
:1027F000E67766770020C6E7FFE70220C3E7000020
:10280000020010000000FFFF10B586B0044614213E
:102810006846FDF782FE13492068884220D112489D
:102820000021026842F002020260006800F002002B
:102830000590C02000901220CDE9010103200390F3
:102840000420049069460948FFF7ECFB0648103065
:10285000016841F400110160006800F40010059067
:1028600006B010BD00540040303802400004024061
:10287000024881680278114481607047100000208E
:102880000B4810B5016841F400710160016841F422
:1028900080610160016841F480710160032000F0F3
:1028A0006FF80F2000F006F800F024F8002010BDAB
:1028B000003C024070B50D4D04464FF47A71287803
:1028C000B1FBF0F00A490968B1FBF0F000F00AFB37
:1028D00048B9102C07D200222146501E00F030F8D3
:1028E00000206C6070BD012070BD00001000002051
:1028F0001C0000200A4808B5016841F480410160CD
:10290000006800F4804000900548001F016841F015
:1029100080510160006800F08050009008BD000008
:1029200044380240002809DB00F01F0201219140D9
:102930004009800000F1E020C0F80011704700005D
:10294000F0B40E4B1B680C46C3F30223C3F107051A
:10295000042D00D90425191D072901D2002300E008
:10296000DB1E012606FA05F1491E214099409E40D2
:10297000761E16403143F0BC01F04FBA0CED00E07A
:10298000064900F0070208684FF6FF03184040EAC6
:102990000220034A10430860704700000CED00E07D
:1029A0000000FA052DE9F0470E46050065D0DFF876
:1029B0001481D8F80000F7B200F00700B04207D247
:1029C00088F80070D8F8000000F00700B04254D139
:1029D00028683D4C810712D5400703D5206840F494
:1029E000E05020602878000703D5206840F460405C
:1029F00020602068A96820F0F00008432060287853
:102A0000C0072DD0304968680839012812D0022843
:102A100013D0032811D00968890700292DDA21680D
:102A200021F0030101432160FFF7FAFB814641F2E7
:102A3000883A0EE009688903EFE709688901ECE745
:102A4000FFF7EEFBA0EB0901514502D90320BDE8D9
:102A5000F0872068696800F00C00B0EB810FEFD1BF
:102A6000D8F80010404601F00701B14207D90770BD
:102A7000006800F00700B04201D00120E7E72878A5
:102A8000400705D52068E96820F4E050084320603D
:102A90002878000706D52068296920F4604040EABC
:102AA000C100206000F038F82168084AC1F3031122
:102AB000515CC8400649086006480068FFF7FAFE06
:102AC0000020C4E7003C0240083802404A400008A9
:102AD0001C00002014000020044805490068096813
:102AE000044AC1F38221515CC84070471C00002099
:102AF000083802405A40000804480549006809683F
:102B0000044AC1F34231515CC84070471C000020A8
:102B1000083802405A400008154810B5006810F007
:102B20000C02144813D04110042A0FD0082A0ED1E9
:102B30000F4C241F2268236802F03F025B0207D576
:102B40002068C0F38810A0FB010106E0084610BD14
:102B50002168C1F38811A1FB00010023FDF734FCBB
:102B60002168C1F30141491C4900B0FBF1F010BDDF
:102B7000083802400024F4002DE9F84F04006ED01C
:102B80002078DFF84C93C007A9F104054AD009F179
:102B900004000168C1F38101012908D00068C0F375
:102BA000810002280AD1D9F80000400206D5286821
:102BB000800337D560680028E1D033E06068B0F565
:102BC000803F10D0B0F5A02F286810D020F48030BE
:102BD0002860286820F4802028606068A8B1FFF78A
:102BE0001FFB06460DE0286840F48030F4E740F40F
:102BF00080202860F7E700BFFFF712FB801B6428E6
:102C000073D828688003F7D50CE0FFF709FB064668
:102C100005E000BFFFF704FB801B6428F0D828689C
:102C20008003F7D42078DFF8AC8280074FF0000AE9
:102C30003ED5A748001D016811F00C0F08D00068B0
:102C4000C0F3810002280BD1D9F80000400207D45C
:102C50002868800716D5E068012800D112E033E12A
:102C6000E068B8B10120C8F80000FFF7D9FA0646BD
:102C700005E000BFFFF7D4FA801B0228C0D82868FF
:102C80008007F7D52868216920F0F80040EAC100E4
:102C900028600DE0C8F800A0FFF7C2FA064604E07D
:102CA000FFF7BEFA801B02281FD828688007F7D4D8
:102CB0002078000722D5864F87486169703771B147
:102CC00001210160FFF7ACFA064604E0FFF7A8FA1D
:102CD000801B022809D838688007F7D50EE0C0F8B5
:102CE00000A0FFF79DFA064605E082E0FFF798FA9C
:102CF000801B02287DD838688007F7D420784007E9
:102D000068D5DFF8CCB100270BF13C0BDBF80000F5
:102D1000C0000BD4DBF8001041F08051CBF800105C
:102D2000DBF80000012700F0805000906B4E306807
:102D3000C00510D4306840F480703060FFF770FA3E
:102D4000009005E0FFF76CFA0099401A022850D86D
:102D50003068C005F6D55E4EA0686C3601280FD0ED
:102D60000528306810D020F001003060306820F075
:102D700004003060A068B8B1FFF752FA00900FE08D
:102D8000306840F00100F4E740F004003060F7E7FD
:102D9000FFF746FA0099411A41F28830814266D81D
:102DA00030688007F4D50EE0FFF73AFA009007E0AC
:102DB000FFF736FA0099411A41F28830814256D81D
:102DC00030688007F4D42FB1DBF8001021F0805177
:102DD000CBF80010A069C8B33D49091D0968C1F3CB
:102DE000810102294AD00228504607D0C8F8600065
:102DF00000E03CE0FFF714FA04463BE04746C8F821
:102E00006000FFF70DFA064605E000BFFFF708FA7D
:102E1000801B02282BD828688001F7D4D4E9070149
:102E20000843A16A2E4A490802EB0141626A41EA5D
:102E30008211084394F82C1040EA0161C9F800108F
:102E400001203866FFF7ECF9044606E03EE000BFDB
:102E5000FFF7E6F9001B022809D828688001F7D59A
:102E600034E000BFFFF7DCF9001B022802D9032081
:102E7000BDE8F88F28688001F4D427E00128F7D056
:102E8000D9F80000E26900F4800191421CD1226A65
:102E900000F03F01914217D147F6C071626A0140CC
:102EA000B1EB821F10D1A26A4FF0FF3300F4403122
:102EB00003EB5202B1EB024F06D194F82C1000F054
:102EC0007060B0EB016F01D00120D1E70020CFE7A7
:102ED0000438024000004742800E47420070004024
:102EE0000000FFFF10B5401EB0F1807F01D301202C
:102EF00010BD4FF0E02460610F21601700F08DFFDE
:102F00000020A06107202061002010BD704770479D
:102F1000F8B5016804460868CA684B6910F00F0FDD
:102F20004FF0000559D003F0010602F490773743C3
:102F300065D0C10705D0D10503D5216C41F0010151
:102F40002164410705D5D90703D0216C41F0020166
:102F50002164810705D5D90703D0216C41F0040114
:102F60002164010707D502F02001314303D0216C11
:102F700041F008012164216C00293AD0800604D573
:102F8000900602D5204600F0EAFC20684069216CDA
:102F9000C0F38010090700D460B3204600F0B8FCED
:102FA00020684069400621D52068143050E8001F91
:102FB00021F0400140E80012002AF5D1A06BA8B131
:102FC0006C490165A06BFFF709F8002811D0A06BD0
:102FD000016D01B0BDE8F040084783060FD59306A8
:102FE0000DD52046BDE8F84000F0B9BC2046FFF7FB
:102FF0008EFFF8BD2046FFF78AFF2564F8BD266BDB
:103000002023012E79D1C60677D5D60675D5086856
:10301000486800904869400640D5A16B0868406840
:103020000004000CEAD0A28D8242E7D9E085C8698D
:10303000B0F5807F2DD020680C3050E8001F21F4BF
:10304000807140E80012002AF5D12068143050E861
:10305000001F21F0010140E80012002AF5D120688C
:10306000143050E8001F21F0400140E80012002A0F
:10307000F5D184F83E30256320680C3050E8001FFD
:1030800021F0100140E80012002AF5D1A06BFEF7F4
:103090005CFFA08DE18D401A81B229E0A08DE18D09
:1030A000401A81B2E08D0028A8D00029A6D020685F
:1030B0000C3050E8002F22F4907240E80026002ED9
:1030C000F5D12068143050E8002F22F0010240E8CA
:1030D0000026002EF5D184F83E30256320680C30A0
:1030E00050E8002F22F0100240E80023002BF5D119
:1030F0002046FFF70BFFF8BDFFE705062BD51506A9
:1031000029D594F83D002128F5D1A068B0F5805F5D
:1031100001D12069B0B1206A411C21622168007888
:103120004860E08C401E0004000CE084E3D120687D
:10313000C16821F08001C1602068C16841F0400190
:10314000C160D8E7206A0088C0F308004860206AA0
:10315000801C2062E5E74006CDD55006CBD5CA6875
:10316000204622F04002CA6084F83D3000F0CDF8DD
:10317000C1E700000139000870B5040004D094F8DC
:103180003D00002510B106E0012070BD84F83C50E0
:10319000204600F023F8242084F83D002068C16810
:1031A00021F40051C160204600F03AFC206801691A
:1031B00021F4904101612068416921F02A014161B7
:1031C0002068C16841F40051C1602564202084F862
:1031D0003D0084F83E00002070BD000010B586B0B0
:1031E000044614216846FDF798F91749206888427B
:1031F00028D116480021026842F4003202600068BB
:1032000000F40030059011481038026842F00102C5
:103210000260006800F0010005900C200090022080
:10322000CDE9010103200390072004906946084876
:10323000FEF7F8FE002211462620FFF781FB26202C
:10324000FFF770FB06B010BD00440040403802405C
:1032500000000240704700002DE9F843044690F852
:103260003D001F4616460D4620284CD1C5B1BEB1C3
:1032700094F83C00012846D0012084F83C004FF02F
:103280000008C4F84080212084F83D00FEF7C8FF04
:10329000A6848146E684A068B0F5805F03D004E090
:1032A0000120BDE8F883206928B12E465FF00005B3
:1032B00084F83C800EE00026FAE78021204600F0EA
:1032C00035FCA0B9AEB116F8010B21684860E08C5E
:1032D000401EE084E08C4B464FF00002009700282F
:1032E000EBD14FF04001204600F020FC30B103202C
:1032F000D7E735F8020BC0F30800E6E7202084F892
:103300003D000020CDE70220CBE77047FEE70168D3
:103310004A69D24352050FD46FF480624A6100219A
:1033200040F8301F202242738173026942F0040288
:10333000026101730120704700207047F8B5044610
:10334000C06A1E460D461746082807D0012805D03A
:1033500010F5803F02D0206B122804D1206801684C
:1033600041F480710160134600224FF001112046A4
:10337000009600F029F940B120680068C00502D528
:103380004FF4007020640320F8BD2069B0F5804F31
:103390000ED00620216800EAD51040F0F000086148
:1033A00033463A460B49204600F042F978B902E02C
:1033B00005F0FE0000E0E8B22168086105493346E7
:1033C0003A46891F204600F033F90028DCD001205E
:1033D000F8BD0000080001002DE9F84F0446006820
:1033E00089460B9D01689846174641F4806101604B
:1033F0002068016841F48071016000954FF0011B65
:103400000022594620460A9B00F0DEF84FF4007A6D
:1034100040B120680068C00501D5C4F840A0032071
:10342000BDE8F88F216809F0FE0008612B462849A5
:1034300020460A9A00F0FCF8F0BB206841698069D8
:1034400000902A4620460A9900F070F940B1206C9D
:1034500004283AD12068016841F40071016034E029
:10346000FEB2B8F1010F09D02168380A08612A4676
:1034700020460A9900F05AF90028E8D12068066130
:103480002A4620460A9900F051F90028DFD1206829
:10349000016841F480710160009500225946204680
:1034A0000A9B00F091F80028B3D1216809F0FF00D1
:1034B00040F00100086100E007E02B460449204687
:1034C0000A9A00F0B5F80028AAD00120A8E7000069
:1034D000020001002DE9F843044600680D46DDE9CD
:1034E000089701689846164641F4807101604B4682
:1034F00000224FF001112046009700F065F848B116
:1035000020680068C00502D54FF4007020640320D5
:10351000BDE8F883216805F0FE0008613B464A4695
:103520001549204600F084F888B92068416980690F
:1035300000903A464946204600F0F8F848B1206C21
:10354000042804D12068016841F400710160012061
:10355000DEE7F5B2B8F1010F09D02168300A086141
:103560003A464946204600F0E1F80028E7D12068B5
:1035700005610020CCE700000200010070B516468E
:103580000D4604460DE02046FFF7C1FE08B10120BC
:1035900070BD681C05D0FEF743FE801BA84207D80B
:1035A00035B120684069C0434007ECD4002070BDAD
:1035B000002044F8300F20216173A073216941F08D
:1035C000200121612073E2E72DE9F0471E46904675
:1035D0000D460446C1F30747DDF8209008E0701C53
:1035E00006D0FEF71DFEA0EB0900B0420FD876B161
:1035F0002068012F18D0806925EA00000004000C23
:1036000014D000214145EAD00020BDE8F087002019
:1036100044F8300F20216173A073216941F020012B
:10362000216120730120F0E74069E5E70121E9E726
:103630002DE9F0479A4691460E46044600254FF084
:103640002008C1F3074725E020684069C0434005D2
:1036500014D42068016841F40071016021686FF49E
:1036600080604861256384F83D8084F83E50206C7A
:1036700040F00400206484F83C501FE0B9F1FF3FA3
:1036800008D0FEF7CDFDA0EB0A0149450CD8B9F1F1
:10369000000F09D02068012F13D0806926EA0000AE
:1036A0000004000C0BD0CFE744F8305F84F80D80A5
:1036B000A573206940F02000206125730120BDE83A
:1036C000F0874069EAE72DE9F041002590460E4673
:1036D0000446202717E04069C043C0060CD454F8C4
:1036E000301B6FF01000486144F810596777A577D8
:1036F000206A2062257717E0FEF792FDA0EB080014
:10370000B04208D83EB120684169C9434906E2D4B5
:103710000020BDE8F08144F8305F6773A57320692D
:1037200040F02000206125730120F2E770B51646B5
:103730000D4604460DE02046FFF7E9FD08B10120E3
:1037400070BD681C05D0FEF76BFD801BA84207D832
:1037500035B120684069C0430006ECD4002070BD3C
:10376000002044F8300F20216173A073216941F0DB
:10377000200121612073E2E770B586B0142168460C
:10378000FCF7CBFE1A480024016841F0800101607B
:10379000016801F080010591016841F001010160BB
:1037A000016801F001010591016841F00801016023
:1037B000016801F008010591016841F00201016012
:1037C00000680C4E00F002004FF480550590002276
:1037D00029463046FEF71EFD01200095CDE9010483
:1037E000694630460394FEF71DFC06B070BD00002C
:1037F00030380240000C0240FEE7FEE77047FFB59C
:1038000083B00A261F461446054600960068012329
:1038100004AA2621FEF7CEFDB8B2CDE900400296FB
:1038200001239DF8102027212868FEF759FE9DF8F6
:103830001000802808D0852809D0872802D1208848
:1038400040BA688107B0F0BD2078A873FAE72088F5
:1038500040BAA881F6E77047FFF70AB830B593B0D1
:1038600030216846FCF759FE14210CA8FCF755FEE0
:103870001D480025016841F080510160006800F09A
:10388000805011901948016841F48041016000683E
:10389000022400F480401190012003901020049035
:1038A000009406940820CDE90750A820CDE909042A
:1038B00004200B906846FFF75FF908B172B6FEE787
:1038C0000CA90F2081E831004FF4A0500F904FF465
:1038D0008050109005210CA8FFF764F8002801D053
:1038E00072B6FEE713B030BD4038024000700040B1
:1038F0000248016841F470010160704788ED00E002
:1039000010B5806B0021C185C184FFF700FB10BD9D
:1039100001680C3151E8002F22F4907241E8002335
:10392000002BF5D10168143151E8002F22F001027B
:1039300041E80023002BF5D1016B012909D1016871
:103940000C3151E8002F22F0100241E80023002B37
:10395000F5D1202180F83E1000210163704708B5A1
:1039600090F83E10222901D0022008BD82684FF451
:1039700080539A4201D1016921B1816A9A421BD0D8
:103980004AB10AE00268816A5268C2F308020A80FA
:10399000816A891C08E0026972B10268526802F00B
:1039A0007F020A70816A491C8162C18D491E090427
:1039B000090CC18503D019E002685268F1E701687B
:1039C000CA6822F02002CA600168CA6822F48072C4
:1039D000CA6001684A6922F001024A61202180F828
:1039E0003E10016B012903D0FFF734FC002008BD15
:1039F0000021016301680C3151E8002F22F0100210
:103A000041E80023002BF5D101680A68D20602D5EF
:103A10000A6849680091818DFFF778FAE6E70000AF
:103A200070B5044600680169E26821F44051114311
:103A300001612169A068E269084361691143084393
:103A40002168CA6849F20C639A430243CA6020683D
:103A50004169A26921F440711143416131492068F3
:103A6000884202D03049884202D1FFF745F801E090
:103A7000FFF732F8E2690023192164253226B2F5F6
:103A8000004F626828D0A0FB0101930F9200FCF761
:103A90009BFC0146B0FBF5F06FF01802504301EBC0
:103AA000800006EB0010B0FBF5F000F0F002B1FB77
:103AB000F5F002EB0012B1FBF5F06FF0180358437C
:103AC00001EB800006EB0010B0FBF5F000F00F00FA
:103AD00021681044886070BDA0FB010192185B4111
:103AE000FCF772FC0146B0FBF5F00201B1FBF5F00A
:103AF0006FF01803584301EB800006EBC000B0FBE9
:103B0000F5F000F0F80002EB4002B1FBF5F058438D
:103B100001EB800006EBC000B0FBF5F000F0070001
:103B2000D6E7000000100140001401402DE9F041EB
:103B3000984617460E460446069D27E0681C25D089
:103B40002DB1FEF76DFBA0EB0800A8421ED920683E
:103B50000C3050E8001F21F4D07140E80012002A18
:103B6000F5D12068143050E8001F21F0010140E831
:103B70000012002AF5D1202084F83D0084F83E0090
:103B8000002084F83C000320BDE8F0812068006834
:103B900036EA000004D00020B842CFD00020F3E77E
:103BA0000120F9E70148FFF7B3B9000074000020D5
:103BB000FEE710B50446204600F04CF82128FAD163
:103BC0000021204600F0C2F8204600F01FF807212F
:103BD000204600F0CAF8204600F045F8C8212046EB
:103BE00000F0BCF87821204600F097F8002120462C
:103BF00000F0DDF80021204600F0ACF8A07B40F09A
:103C000018012046BDE8104000F0A0B808B5012317
:103C10006A468021FFF7F3FD9DF8000008BD08B556
:103C200001236A468921FFF7EAFD9DF8000008BDDF
:103C300008B501236A468E21FFF7E1FD9DF80000DB
:103C400008BD08B501236A468321FFF7D8FD9DF81A
:103C5000000008BD08B501236A468121FFF7CFFDAA
:103C60009DF8000008BD08B501236A468221FFF7D0
:103C7000C6FD9DF8000008BD08B501236A468F21E6
:103C8000FFF7BDFD9DF8000008BD38B50446FFF7FD
:103C9000BDFF0546A07BC1070BD020F001012046E7
:103CA00000F054F805E02046FFF7B0FF0120FEF7D2
:103CB000A7F9A07B4006F6D502236A468521204657
:103CC000FFF79DFD45F01801204600F03FF8A08960
:103CD00038BD38B50446FFF799FF0546A07BC107FC
:103CE0000BD020F00101204600F030F805E020461E
:103CF000FFF78CFF0120FEF783F9A07B8006F6D545
:103D000002236A4687212046FFF779FD45F0180116
:103D1000204600F01BF8608938BD70B50E46054698
:103D2000FFF774FF0446A87BC10704D020F001010F
:103D3000284600F00BF832468021284600F047F86C
:103D400021462846BDE87040AFF300800A46802136
:103D500000F03DB80A46892100F039B80A2291FBEB
:103D6000F2F1CAB2832100F032B870B50E460546B2
:103D7000FFF74CFF0446A87BC10704D020F00101E7
:103D80002846FFF7E3FF32468221284600F01FF85D
:103D90002846FFF73BFFA87B00F00100A04205D0BA
:103DA00021462846BDE87040FFF7D0BF70BD70B512
:103DB0000C460546FFF760FF00F0E70040EAC4004C
:103DC000C2B22846BDE870408F21AFF3008017B51E
:103DD00083B00A24012305AA8DE81C000A46006866
:103DE0002621FEF779FC06B010BD03B4019841000E
:103DF000009850EAC12018BF04204A0D18BF40F0B7
:103E0000010040F2FF72B2EB515F08BF40F00200C8
:103E1000012808BF052002B070470907090E0028D5
:103E200004DB00F1E02080F80014704700F00F0080
:103E300000F1E02080F8141D704730380A2801D2C4
:103E40000120704700207047FEF71AFDFFF706FDBE
:103E5000FFF792FC31483049002401603049C0E945
:103E600001144FF48041C0E9034144618461C4619D
:103E70000462FEF7DBF908B172B6FEE7274829496C
:103E8000543001604FF4E131C0E901140C21C460E9
:103E9000C0E904418461C461FFF76EF908B172B6EC
:103EA000FEE72148FFF785FE1F48FFF7D3FE1E48B7
:103EB000FFF7D0FE01461DA000F076F81A48FFF784
:103EC000DBFE01461DA000F06FF81748FFF7B9FEB2
:103ED00001461FA000F068F81348FFF7A0FE014656
:103EE0001EA000F061F81048FFF7A2FE01461FA0D7
:103EF00000F05AF80C48FFF7C8FE01461FA000F07A
:103F000053F80948FFF7E5FE014621A000F04CF800
:103F10000A20FEF775F8EDE700540040200000206D
:103F2000801A0600004400400000002056657273AD
:103F3000696F6E3A2025780A0000000050726F7891
:103F40002054696D696E673A2025780A00000000E8
:103F500049524C45443A2025640A0000494E5420F9
:103F6000436F6E3A2025780A00000000494E542025
:103F70005354413A2025780A00000000416D6269DF
:103F8000656E742076616C75653A202564200000AA
:103F900050726F78696D6974792076616C75653AD5
:103FA0002025640A000000000FB4402010B5FCF783
:103FB000B5F9044603AA0299FCF77EFA2046FCF7FD
:103FC0008DFA82B2642321460448FFF745F9204662
:103FD000FCF7D3F910BC5DF814FB0000740000205E
:103FE00010B500290AD00878002807D00548784481
:103FF000FDF79AFB002801D0002010BD024878444C
:1040000010BD0000920100008A01000010B50029D7
:104010000AD00878002807D005487844FDF784FBCB
:10402000002801D0002010BD0248784410BD0000D7
:10403000820100007A0100004FF04070E1EE100AAA
:104040007047FCF72EBFFDF763B8000000000000CA
:104050000000010203040607080900000000010235
:104060000304000000000000000000003031323383
:10407000343536373839414243444546403058009C
:1040800030313233343536373839616263646566CE
:10409000403078000400000800000000000000022A
:1040A0000001000010303132333435363738396191
:1040B0006263646566787000303132333435363788
:1040C0003839414243444546585000000240000000
:1040D000000000A00000000005400000000000C833
:1040E000000000000C4000000000409C00000000A8
:1040F000194000000020BCBE000000003440000059
:10410000BFC91B8E00000004B5400000504BCFD04B
:104110006607E2CF010000006C4100003E8251AA18
:10412000DFEEA73401000000D9420000DCB5A0E2B8
:104130003A301F97FFFFFFFFB4450000FD25A0C8E0
:10414000E9A3C14FFFFFFFFFFF3F00000000008019
:1041500000000000FF3F00000000008000000000A1
:10416000AC4200080000002020000000C40100084C
:10417000CC42000820000020F8060000E001000802
:104180001C00000043000000F8FFFFFF0C000000CF
:104190000E0000000F0000002E00000010010000C3
:1041A00043000000F8FFFFFF004040404040404017
:1041B00040404141414141404040404040404040FA
:1041C000404040404040404040050202020202029E
:1041D00002020202020202020220202020202020ED
:1041E0002020200202020202020290909090909001
:1041F00010101010101010101010101010101010BF
:104200001010101002020202020288888888888832
:10421000080808080808080808080808080808081E
:104220000808080802020202400000000000000026
:10423000000000000000000000000000000000007E
:10424000000000000000000000000000000000006E
:10425000000000000000000000000000000000005E
:10426000000000000000000000000000000000004E
:10427000000000000000000000000000000000003E
:10428000000000000000000000000000000000002E
:10429000000000000000000000000000000000001E
:1042A00000000000000000000000000020000020CE
:1042B00000000000000000000000000001000000FD
:0C42C00010000000000000000024F400CA
:040000050800018965
:00000001FF
